:10000E00000D0004000D0004001400040014000490
:10001E00001600040016000400140008001200046C
:10002E00001200040011000400110004000F00046F
:10003E00000F0004000D000800140004001400045A
:10004E00001200040012000400110004001100044C
:10005E00000F000800140004001400040012000435
:10006E00001200040011000400110004000F00082B
:10007E00000D0004000D0004001400040014000420
:10008E0000160004001600040014000800120004FC
:10009E00001200040011000400110004000F0004FF
:0A00AE00000F0004000D000800FF21
:10019200204A0A0000F88CF8F3F95BF9B8FA15FA6C
:1001A20067FAB9FB04FB4BFB90FBCFFC0CFC44FC55
:1001B20079FCACFCDCFD09FD34FD5CFD82FDA6FD95
:1001C200C8FDE8FE06FE22FE3DFE56FE6EFE85FEE0
:0D01D2009AFEAEFEC1FED3FEE4FEF4FF0374
:10014400120206E509F4602FE50825E0240EF58285
:10015400E43400F583740193F5090508E50875F0A6
:100164007DA4FFAEF012021D0508C28C7F057E003F
:1001740012021DD28C80CCE4F508E50825E0240E9B
:0E018400F582E43400F583740193F50980B52B
:03000B000201E00F
:1001E000C0E0C0D075D000C000C006E50925E024FD
:1001F0000AF8E6FE08E6F58AEEF58CB2A5D006D040
:0602000000D0D0D0E03276
:10021D00EF1FAC0670011E4C600B007D027CC7DC2D
:05022D00FEDDFC80EB8A
:0102320022A9
:100206005389F0438901758A66758CFCC28DD28C40
:07021600D2AFD2A9C2B92248
:030000000200B843
:0C00B800787FE4F6D8FD7581530200FF4C
:1000C400020144E493A3F8E493A34003F68001F20D
:1000D40008DFF48029E493A3F85407240CC8C3333D
:1000E400C4540F4420C8834004F456800146F6DF0C
:1000F400E4800B0102040810204080900192E47E09
:10010400019360BCA3FF543F30E509541FFEE49300
:10011400A360010ECF54C025E060A840B8E493A3C7
:10012400FAE493A3F8E493A3C8C582C8CAC583CAF2
:10013400F0A3C8C582C8CAC583CADFE9DEE780BEAA
:0101DF00001F
:00000001FF
