:1009FD0020200020202D20202D20200020203A20F6
:050A0D00203A2020004A
:1006680012054FE518FB3395E0FA750C027D017F02
:100678000112099DE519FB3395E0FA750C027D041A
:100688007F0112099DE51AFB3395E0FA750C027D8E
:10069800077F0112099DE51BFB3395E0FA750C02F3
:1006A8007D017F0212099DE51CFB3395E0FA750C6C
:1006B800027D047F0212099DE51DFB3395E0FA7562
:1006C8000C027D077F0212099DE51EFB3395E0FAB7
:0A06D800750C017D0A7F0102099DE7
:10000E00E524B4020B0521E52175F0078485F02166
:10001E00E524640360030200F474182521F806D366
:10002E00E518648094E34003E4F518D3E519648081
:10003E00948C4003751901E51964016023E5196478
:10004E0003601DE51964056017E51964076011E585
:10005E00196408600BE519640A6005E519B40C0B08
:10006E00D3E51A6480949F404D8048E5196404607E
:10007E0011E5196406600BE51964096005E519B40C
:10008E000B0BD3E51A6480949E402B8026E519B4A1
:10009E000224E51875F004120499AFF0EF700BD33B
:1000AE00E51A6480949D400E8009D3E51A6480940D
:1000BE009C4003751A01D3E51B648094974003E4BA
:1000CE00F51BD3E51C648094BB4003E4F51CD3E51B
:1000DE001D648094BB4003E4F51DD3E51E6480943B
:1000EE00874003751E01E524640460030201FB745E
:1000FE00182521F816C3E5186480948050037518EE
:10010E0063C3E51964809481500375190CE5196475
:10011E00016023E5196403601DE51964056017E5A8
:10012E001964076011E5196408600BE519640A602B
:10013E0005E519B40C17C3E51A6480948150037554
:10014E001A1FD3E51A6480949F4072806DE519647E
:10015E00046011E5196406600BE51964096005E594
:10016E0019B40B17C3E51A648094815003751A1ED7
:10017E00D3E51A6480949E4044803FE51964027072
:10018E003CE51875F004120499AFF0EF7017C3E553
:10019E001A648094815003751A1DD3E51A648094F5
:1001AE009D401A8015C3E51A648094815003751A18
:1001BE001CD3E51A6480949C4003751A01C3E51B99
:1001CE00648094805003751B17C3E51C6480948073
:1001DE005003751C3BC3E51D648094805003751D50
:1001EE003BC3E51E648094815003751E07E52170A4
:1001FE0014E523B4010F7BFF7A0979FD7D017F01A0
:10020E0012095C8011E518FB3395E0FA750C027D3E
:10021E00017F0112099DE521B40114E523B4010FFC
:10022E007BFF7A0979FD7D047F0112095C8011E55F
:10023E0019FB3395E0FA750C027D047F0112099DBE
:10024E00E521B40214E523B4010F7BFF7A0979FD91
:10025E007D077F0112095C8011E51AFB3395E0FAE8
:10026E00750C027D077F0112099DE521B40314E58B
:10027E0023B4010F7BFF7A0979FD7D017F021209FC
:10028E005C8011E51BFB3395E0FA750C027D017F56
:10029E000212099DE521B40414E523B4010F7BFF7E
:1002AE007A0979FD7D047F0212095C8011E51CFB41
:1002BE003395E0FA750C027D047F0212099DE5214B
:1002CE00B40514E523B4010F7BFF7A0979FD7D0790
:1002DE007F0212095C8011E51DFB3395E0FA750C67
:1002EE00027D077F0212099DE521B40612E523B4B3
:1002FE00010D7BFF7A0979FD7D0A7F0102095CE51C
:10030E001EFB3395E0FA750C017D0A7F0112099DE3
:01031E0022BC
:10079F00120A121200031209BA7BFF7A0A79007D3E
:1007AF00017F0112095C7BFF7A0A79097D017F02C3
:1007BF0012095C12031F1206E28F24E524B40116FE
:1007CF00E5227007752201F521800BE522B40106A1
:1007DF00E4F52212031FE5221460080470D81206F4
:0807EF006880D312000E80CED9
:03000B0002087F69
:09087F00C0E0C0D075D000C00734
:10088800758A66758CFC0520E5207002051FC394E7
:10089800F4E51F94014012E52370047F0180027F74
:0908A800008F23751F007520006C
:0708B100D007D0D0D0E032E7
:060A2600C2A58F80D2A7DB
:080A2C007F027EEFDEFEDFFC1D
:010A3400229F
:0A0A3500C2A6120A26C2A7020A2C6C
:10097F00CFCDCFCECCCE1204FA7C007D0A1204FA72
:04098F00ED2430FF24
:0A099300D2A6120A26C2A7020A2CFF
:1009D100AE07BE0104ED148006BE0209ED243F44BA
:0609E10080FF120A35221E
:100A12007F38120A357F0C120A357F06120A357F9B
:040A220001020A358E
:0A0A3F00AC031209D1AF04020993C1
:06095C008B088A09890ADC
:100962001209D1E4FDAB08AA09A90A8D8275830098
:0C0972001204BBFF60061209930D80E91F
:01097E002256
:0C0929007F0AEA24FFFDE434FFFC7E009E
:080935008E0D8F0E8C0F8D104A
:10093D007F017E00E4FBEBC39510E50F6480F87436
:0E094D008098500AAC0DAD0E1204E80B80E845
:01095B002279
:04099D008A0A8B0B2C
:1009A1001209D1AA0CEAD39400400D120929AC0A0C
:0809B100AD0B12097F1A80ED65
:0109B900221B
:100845001209D1C3EA64809480400B7F2B1209936F
:100855008A168B17800E7F2D120993C3E49BF5171B
:10086500E49AF516AA15EAD39400400D120929ACAD
:0908750016AD1712097F1A80ED7F
:01087E002257
:0408B8008A278B28D8
:1008BC001209D1AA29EAD3940040297F1012092BDE
:1008CC00AC27AD28CFCDCFCECCCE1204FAEF540F3F
:1008DC00FEC3940AEE5004243080022437FF120920
:0408EC00931A80D10A
:0108F00022E5
:0408F1008A2C8B2D95
:1008F5001209D1AA2EEAD394004028EA24FFFDE488
:1009050034FFFC7F027E00120935AC2CAD2DCFCD16
:10091500CFCECCCE1204FAEF54012430FF12099346
:030925001A80D263
:0109280022AC
:090A490007181A02150E1C030621
:05000300C2B5C2B622E7
:050743002DFDEE3CFC61
:060748008C088D09AB07CF
:10074E00E4FDD2B574017E00A805088005C333CE42
:10075E0033CED8F9FFEBF582EF558224FF92B4D257
:10076E00B6C2B60DBD08DDE4FD74017E00A8050815
:10077E008005C333CE33CED8F9FFE5085EFEE5091A
:10078E005F4E24FF92B4D2B6C2B60DBD08DBC2B521
:01079E002238
:0207F700AD074C
:1007F900E4FBF9430501D2B574017E00A803088022
:1008090005C333CE33CED8F9FFEDF582EF558224F7
:10081900FF92B4C2B6D2B60BBB08DDE4FBD2B6C2B6
:10082900B630B40D7401A803088002C333D8FC4262
:0B083900010BBB08E8C2B5C2B4AF0160
:010844002291
:10031F00E4FDFC7F8E120748E51875F00A12049968
:10032F00FF3395E0FEEFC4F8540FC868FFEEC454D6
:10033F00F048FEE51875F00A120499ADF0ED33950B
:10034F00E0FCEF7F8C120743E51975F00A12049950
:10035F00FF3395E0FEEFC4F8540FC868FFEEC454A6
:10036F00F048FEE51975F00A120499ADF0ED3395DA
:10037F00E0FCEF7F88120743E51A75F00A12049923
:10038F00FF3395E0FEEFC4F8540FC868FFEEC45476
:10039F00F048FEE51A75F00A120499ADF0ED3395A9
:1003AF00E0FCEF2DFDEE3CFC7F86120748E51B7548
:1003BF00F00A120499FF3395E0FEEFC4F8540FC80A
:1003CF0068FFEEC454F048FEE51B75F00A1204995D
:1003DF00ADF0ED3395E0FCEF2DFDEE3CFC7F84128C
:1003EF000748E51C75F00A120499FF3395E0FEEFFC
:1003FF00C4F8540FC868FFEEC454F048FEE51C75EE
:10040F00F00A120499ADF0ED3395E0FCEF2DFDEEFF
:10041F003CFC7F82120748E51D75F00A120499FF14
:10042F003395E0FEEFC4F8540FC868FFEEC454F0E4
:10043F0048FEE51D75F00A120499ADF0ED3395E015
:10044F00FCEF2DFDEE3CFC7F80120748E51E75F09A
:10045F000A120499FF3395E0FEEFC4F8540FC868F1
:10046F00FFEEC454F048FEE51E75F00A120499AD74
:10047F00F0ED3395E0FCEF2DFDEE3CFC7F8A12078B
:0A048F00487D807C007F8E02074844
:10054F007F8C1207F7EFC4540F75F00AA4FEEF5417
:10055F000F2EF5187F881207F7EFC4540F75F00AA6
:10056F00A4FEEF540F2EF5197F861207F7EFC45430
:10057F000F75F00AA4FEEF540F2EF51A7F841207A1
:10058F00F7EFC4540F75F00AA4FEEF540F2EF51BAE
:10059F007F821207F7EFC4540F75F00AA4FEEF54D1
:1005AF000F2EF51C7F801207F7EFC4540F75F00A5A
:1005BF00A4FEEF540F2EF51D7F8A1207F7EFC454D8
:0C05CF000F75F00AA4FEEF540F2EF51E6D
:0105DB0022FD
:1006E200E4F50820B1137F14FE1209E730B1FD7F53
:1006F200147E001209E775080120B0147F147E00F1
:100702001209E730B0FD7F147E001209E775080276
:1007120020B2147F147E001209E730B2FD7F147EEE
:10072200001209E775080320B3147F147E00120932
:10073200E730B3FD7F147E001209E7750804AF08A5
:010742002294
:1009BA005389F0438901758A66758CFCC28DD28C85
:0709CA00D2AFD2A9C2B9228D
:1009E700EF1FAC0670011E4C600B007D027CC7DC5C
:0509F700FEDDFC80EBB9
:0109FC0022D8
:030000000205DC1A
:0C05DC00787FE4F6D8FD75812E0206231E
:10049900C2D530F707B2D563F0FF05F030E70CB2EB
:1004A900D5F4048463F0FF05F080018430D502F4AB
:0204B90004221B
:1004BB00BB010CE58229F582E5833AF583E02250F6
:1004CB0006E92582F8E622BBFE06E92582F8E22240
:0D04DB00E58229F582E5833AF583E493225A
:1004E800EF8DF0A4A8F0CF8CF0A428CE8DF0A42E28
:0204F800FE22E2
:1004FA00BC000BBE0029EF8DF084FFADF022E4CCE6
:10050A00F875F008EF2FFFEE33FEEC33FCEE9DECAE
:10051A00984005FCEE9DFE0FD5F0E9E4CEFD22EDF4
:10052A00F8F5F0EE8420D21CFEADF075F008EF2F3E
:10053A00FFED33FD4007985006D5F0F222C398FD2F
:05054A000FD5F0EA22CC
:1005E80002079FE493A3F8E493A34003F68001F283
:1005F80008DFF48029E493A3F85407240CC8C33314
:10060800C4540F4420C8834004F456800146F6DFE2
:10061800E4800B0102040810204080900A49E47E1F
:10062800019360BCA3FF543F30E509541FFEE493D7
:10063800A360010ECF54C025E060A840B8E493A39E
:10064800FAE493A3F8E493A3C8C582C8CAC583CAC9
:10065800F0A3C8C582C8CAC583CADFE9DEE780BE81
:010A520000A3
:00000001FF
