:0602AB0048656C6C6F0059
:100097001202577B417D017F011202A37BFF7A0287
:1000A70079AB7D037C007F011201D2750D027B4283
:1000B7007A007D097C007F01120217750D027BA86B
:1000C7007AFF7D0C7C007F01120106750D027BA56E
:1000D7007A007D017C007F02120150750D087BA517
:1000E7007A007D047C007F021201987BDF7D0D7F03
:0F00F700021202A37B437D0E7F021202A380FE42
:06027E00C2A58F80D2A78B
:080284007F027EC7DEFEDFFCF5
:01028C00224F
:0A029900C2A612027EC2A702028470
:10023900CFCDCFCECCCE1200427C007D0A12004237
:04024900ED2430FF71
:0A024D00D2A612027EC2A7020284AC
:100257007F381202997F0C1202997F061202997F4A
:0402670001020299F5
:10026B00EDBF010514448080051444802440FF1227
:03027B00029922C3
:0802A30012026BAF0302024DD1
:0601D2008B088A09890A6E
:1001D80012026BE4FDAB08AA09A90A8D8275830097
:0C01E800120003FF600612024D0D80E9BA
:0101F40022E8
:0901F50024FFFDE434FFFC7F0A45
:0201FE00AB074D
:100200007F017E00AA05EAD39400400AEBFD7C0042
:060210001200301A80F01C
:0102160022C5
:040217008A0B8B0CB7
:10021B0012026B850D0EE50ED394004010E50E1205
:0D022B0001F5AC0BAD0C120239150E80E987
:0102380022A3
:060106008C098D0AA90717
:10010C0012026BC3EA64809480500FC3E49BF51019
:10011C00E49AF50FAF017B2D80088A0F8B10AF018D
:10012C007B2BAD0AAC091202A3850D0EE50ED39400
:10013C00004010E50E1201F5AC0FAD10120239158E
:03014C000E80E939
:01014F00228D
:040150008B828A8391
:1001540012026B850D0EE50ED394004036E50E2495
:10016400FFFDE434FFFC7F101201FEAD07AC06AFC7
:1001740082AE83120042EF540FFD7C00C3940AEC5C
:100184009400ED4004243780022430FF12024D1500
:030194000E80C317
:010197002245
:040198008A0B8B0C37
:10019C0012026B850D0EE50ED394004028E50E245B
:1001AC00FFFDE434FFFC7F021201FEAC0BAD0CCF63
:1001BC00CDCFCECCCE120042EF54012430FF120230
:0501CC004D150E80D16D
:0101D100220B
:0300000002028D6C
:0C028D00787FE4F6D8FD75811002009720
:10000300BB010CE58229F582E5833AF583E02250B2
:1000130006E92582F8E622BBFE06E92582F8E222FC
:0D002300E58229F582E5833AF583E4932216
:10003000EF8DF0A4A8F0CF8CF0A428CE8DF0A42EE4
:02004000FE229E
:10004200BC000BBE0029EF8DF084FFADF022E4CCA2
:10005200F875F008EF2FFFEE33FEEC33FCEE9DEC6B
:10006200984005FCEE9DFE0FD5F0E9E4CEFD22EDB1
:10007200F8F5F0EE8420D21CFEADF075F008EF2FFB
:10008200FFED33FD4007985006D5F0F222C398FDEC
:050092000FD5F0EA2289
:00000001FF
