:1003900048656C6C6F21005772697465204F4B2162
:0B03A000002020202020202020200032
:100003001203D77BFF7A0379907D017F01120314DA
:10001300750C05AB23AA227D017F02120373120123
:10002300588F24E524B401150523E5237002052226
:10003300750C05FBAA227D017F02120373E524B42C
:100043000216E523152370021522750C05AB23AAAE
:10005300227D017F02120373E52464037039FCAD32
:1000630023FF1202F07F057E001203ABE522FD7C25
:10007300007F011202F07BFF7A0379977D017F02F3
:100083001203147FE87E031203AB7BFF7A0379A18B
:100093007D017F02120314E52464047081FF1202C0
:1000A300977522008F237F01120297EFFEEE422203
:1000B300750C05AB23AA227D017F02120373020094
:0100C300211B
:10015800E4F50820B1137F14FE1203AB30B1FD7F24
:10016800147E001203AB75080120B0147F147E00C2
:100178001203AB30B0FD7F147E001203AB7508028A
:1001880020B2147F147E001203AB30B2FD7F147EC0
:10019800001203AB75080320B3147F147E0012030A
:1001A800AB30B3FD7F147E001203AB750804AF08B3
:0101B8002224
:1003AB00EF1FAC0670011E4C600B007D027CC7DC9E
:0503BB00FEDDFC80EBFB
:0103C000221A
:0603EB00C2A58F80D2A71D
:0803F1007F027EEFDEFEDFFC5F
:0103F90022E1
:0A041200C2A61203EBC2A70203F119
:10033700CFCDCFCECCCE1201037C007D0A120103B4
:04034700ED2430FF72
:0A034B00D2A61203EBC2A70203F1D1
:1003C100AE07BE0104ED148006BE0209ED243F44D0
:0603D10080FF120412225D
:1003D7007F381204127F0C1204127F061204127F58
:0403E70001020412F9
:0A041C00AC031203C1AF0402034B4E
:060314008B088A09890A2A
:10031A001203C1E4FDAB08AA09A90A8D82758300FC
:0C032A001200C4FF600612034B0D80E9B6
:0103360022A4
:0C0264007F0AEA24FFFDE434FFFC7E006A
:080270008E0D8F0E8C0F8D1016
:100278007F017E00E4FBEBC39510E50F6480F87402
:0E0288008098500AAC0DAD0E1200F10B80E80C
:010296002245
:040373008A0A8B0B5C
:100377001203C1AA0CEAD39400400D120264AC0A1E
:08038700AD0B1203371A80EDE3
:01038F00224B
:1001B9001203C1C3EA64809480400B7F2B12034B66
:1001C9008A168B17800E7F2D12034BC3E49BF517FC
:1001D900E49AF516AA15EAD39400400D120264AC0C
:0901E90016AD171203371A80ED60
:0101F20022EA
:0401F3008A1A8B1BBE
:1001F7001203C1AA1CEAD3940040297F1012026699
:10020700AC1AAD1BCFCDCFCECCCE120103EF540F1E
:10021700FEC3940AEE5004243080022437FF1203F1
:040227004B1A80D11D
:01022B0022B0
:04022C008A1F8B207A
:100230001203C1AA21EAD394004028EA24FFFDE476
:1002400034FFFC7F027E00120270AC1FAD20CFCDC8
:10025000CFCECCCE120103EF54012430FF12034B5A
:030260001A80D22F
:010263002278
:09043000D2A0D2A1C2A0C2A122F7
:09043900C2A1C2A0D2A1D2A022EE
:0202C700AD0781
:1002C900E4FB74807E00A803088006CEA2E713CE63
:1002D90013D8F8FFEDF582EF558224FF92A0D2A141
:0602E900C2A10BBB08DC02
:0102EF0022EC
:10035500E4FFD2A0FE30A00D7480A806088002C379
:0D03650013D8FC4207D2A1C2A10EBE08E8C9
:010372002268
:0A042600EF24FF92A0D2A1C2A12290
:0B03FA00D2A0A2A0E433FFD2A1C2A158
:0104050022D4
:1002F0008F088C098D0A1204307FA01202C71203E6
:10030000FAAF081202C71203FAAF0A1202C71203A9
:04031000FA020439B0
:020297008F08CE
:100299001204307FA01202C71203FAAF081202C774
:1002A9001203FA1204307FA11202C71203FA1203D1
:0D02B900558F097F01120426120439AF0988
:0102C6002215
:03000000020406F1
:0C040600787FE4F6D8FD75812402000325
:1000C400BB010CE58229F582E5833AF583E02250F1
:1000D40006E92582F8E622BBFE06E92582F8E2223B
:0D00E400E58229F582E5833AF583E4932255
:1000F100EF8DF0A4A8F0CF8CF0A428CE8DF0A42E23
:02010100FE22DC
:10010300BC000BBE0029EF8DF084FFADF022E4CCE0
:10011300F875F008EF2FFFEE33FEEC33FCEE9DECA9
:10012300984005FCEE9DFE0FD5F0E9E4CEFD22EDEF
:10013300F8F5F0EE8420D21CFEADF075F008EF2F39
:10014300FFED33FD4007985006D5F0F222C398FD2A
:050153000FD5F0EA22C7
:00000001FF
