:10009A00000C000C001300130015001500130013C8
:1000AA000011001100100010000E000E000C000CD0
:1000BA00001300130011001100100010000E000EB2
:1000CA00001300130011001100100010000E000EA2
:1000DA00000C000C00130013001500150013001388
:1000EA000011001100100010000E000E000C000C90
:0200FA0000FF05
:1000FC0020480AF88CF8F3F95BF9B8FA15FA67FAA4
:10010C00B9FB04FB4BFB90FBCFFC0CFC44FC79FCD7
:10011C00ACFCDCFD09FD34FD5CFD82FDA6FDC8FDDB
:10012C00E8FE06FE22FE3DFE56FE6EFE85FE9AFEA3
:0B013C00AEFEC1FED3FEE4FEF4FF03A4
:100148001201B8E50825E0249AF582E43400F58325
:10015800E493FE740193FFF44E60188F097FF47ED8
:10016800011201CF0508C28C7F057E001201CFD293
:100178008C80D0E4F508E50825E0249AF582E4347B
:0A01880000F583740193F50980B9B6
:03000B000201925D
:10019200C0E0C0D075D000C000C006E50925E0244B
:1001A2000AF8E6FE08E6F58AEEF58CB2A5D006D08E
:0601B20000D0D0D0E032C5
:1001CF00EF1FAC0670011E4C600B007D027CC7DC7C
:0501DF00FEDDFC80EBD9
:0101E40022F8
:1001B8005389F0438901758A66758CFCC28DD28C8F
:0701C800D2AFD2A9C2B92297
:0300000002000EED
:0C000E00787FE4F6D8FD758151020055A2
:10001A00020148E493A3F8E493A34003F68001F2B3
:10002A0008DFF48029E493A3F85407240CC8C333E7
:10003A00C4540F4420C8834004F456800146F6DFB6
:10004A00E4800B01020408102040809000FCE47E4A
:10005A00019360BCA3FF543F30E509541FFEE493AB
:10006A00A360010ECF54C025E060A840B8E493A372
:10007A00FAE493A3F8E493A3C8C582C8CAC583CA9D
:10008A00F0A3C8C582C8CAC583CADFE9DEE780BE55
:0101470000B7
:00000001FF
