:10000E00120064E4F5097F0A7E0012007B0509E503
:10001E0009C3946440F0750964E509D3940040E384
:0B002E007F0A7E0012007B150980EEA7
:03000B00020039B7
:10003900C0E0C0F0C0D0758AA4758CFF0508E5083A
:1000490075F0648485F008E508C395095004C2A1D8
:0B0059008002D2A1D0D0D0F0D0E03265
:100064005389F0438901758AA4758CFFC28DD28CA3
:07007400D2AFD2A9C2B922EC
:10007B00EF1FAC0670011E4C600B007D027CC7DCD1
:05008B00FEDDFC80EB2E
:01009000224D
:030000000200916A
:0C009100787FE4F6D8FD75810B02000EAC
:00000001FF
