:0B02F80041444A004E544300475200AE
:100097001202C97BFF7A0279F87D017F0112023FC4
:1000A7007BFF7A0279FC7D057F0112023F7BFF7A95
:1000B7000379007D097F0112023F7F9C1201088EA0
:1000C700228F23750C03AB23AA227D017F02120224
:1000D700807FDC1201088E228F23750C03AB23AAC5
:1000E700227D057F021202807FAC1201088E228FCB
:1000F70023750C03AB23AA227D097F02120280809D
:01010700B93E
:10029D00EF1FAC0670011E4C600B007D027CC7DCAD
:0502AD00FEDDFC80EB0A
:0102B2002229
:0602DD00C2A58F80D2A72C
:0802E3007F027EEFDEFEDFFC6E
:0102EB0022F0
:0A030300C2A61202DDC2A70202E347
:10026200CFCDCFCECCCE1200427C007D0A1200420E
:04027200ED2430FF48
:0A027600D2A61202DDC2A70202E3C5
:1002B300AE07BE0104ED148006BE0209ED243F44DF
:0602C30080FF120303227C
:1002C9007F381203037F0C1203037F061203037F97
:0402D9000102030318
:0A030D00AC031202B3AF0402027643
:06023F008B088A09890A00
:100245001202B3E4FDAB08AA09A90A8D82758300E1
:0C025500120003FF60061202760D80E923
:01026100227A
:0C020C007F0AEA24FFFDE434FFFC7E00C2
:080218008E0D8F0E8C0F8D106E
:100220007F017E00E4FBEBC39510E50F6480F8745A
:0E0230008098500AAC0DAD0E1200300B80E825
:01023E00229D
:040280008A0A8B0B50
:100284001202B3AA0CEAD39400400D12020CAC0A79
:08029400AD0B1202621A80EDAD
:01029C00223F
:100161001202B3C3EA64809480400B7F2B120276A3
:100171008A168B17800E7F2D120276C3E49BF5172A
:10018100E49AF516AA15EAD39400400D12020CACBC
:0901910016AD171202621A80ED8E
:01019A002242
:04019B008A1A8B1B16
:10019F001202B3AA1CEAD3940040297F1012020E58
:1001AF00AC1AAD1BCFCDCFCECCCE120042EF540F39
:1001BF00FEC3940AEE5004243080022437FF12024B
:0401CF00761A80D14B
:0101D3002209
:0401D4008A1F8B20D3
:1001D8001202B3AA21EAD394004028EA24FFFDE4DE
:1001E80034FFFC7F027E00120218AC1FAD20CFCD79
:1001F800CFCECCCE120042EF54012430FF1202764B
:030208001A80D287
:01020B0022D0
:02010800AD0741
:10010A00E4F508F509C2B6C2B5FB74807E00A803FF
:10011A00088006CEA2E713CE13D8F8FFEDF582EFDA
:10012A00558224FF92B4D2B6C2B60BBB08DCE4FBFC
:10013A00D2B6C2B630B714E47E80A803088005CED2
:10014A00C313CE13D8F94209EE42080BBB10E1D211
:06015A00B5E508FF7E0080
:01016000227C
:030000000202EC0D
:0C02EC00787FE4F6D8FD758123020097AE
:10000300BB010CE58229F582E5833AF583E02250B2
:1000130006E92582F8E622BBFE06E92582F8E222FC
:0D002300E58229F582E5833AF583E4932216
:10003000EF8DF0A4A8F0CF8CF0A428CE8DF0A42EE4
:02004000FE229E
:10004200BC000BBE0029EF8DF084FFADF022E4CCA2
:10005200F875F008EF2FFFEE33FEEC33FCEE9DEC6B
:10006200984005FCEE9DFE0FD5F0E9E4CEFD22EDB1
:10007200F8F5F0EE8420D21CFEADF075F008EF2FFB
:10008200FFED33FD4007985006D5F0F222C398FDEC
:050092000FD5F0EA2289
:00000001FF
