:10093D00543A0054483A00544C3A004F564800552A
:07094D004E4C0020202000A9
:10046D001209E67FF47E0112096B1209C3120954B9
:10047D00E4FF1207A88F137F011207A88F0A120934
:10048D00E61207D88F128E118D108C0F7BFF7A0913
:10049D00793D7D017F01120851E4FFFEFDFCAB1299
:1004AD00AA11A910A80F1201B45017AF12AE11ADB9
:1004BD0010AC0F12022D8F0E8E0D8D0C8C0B7B2D13
:1004CD00800E85120E85110D85100C850F0B7B2B63
:1004DD007D037F01120A15AF0EAE0DAD0CAC0B12E4
:1004ED00027CAB07AA067519037D047F011208CEA5
:1004FD007B2E7D077F01120A15E4FFFE7DC87C422D
:10050D00AB0EAA0DA90CA80B12000E12027CE47BF7
:10051D0064FAF9F81203CD7519027D087F011208EE
:10052D00CE7BFF7A0979407D017F02120851E513D8
:10053D00FB3395E0FA7519037D047F021206917B5A
:10054D00FF7A0979447D097F02120851E50AFB33D0
:10055D0095E0FA7519037D0C7F02120691120003C6
:10056D008F14E5146076B4010E0513C3E513648092
:10057D0094FD400375137DE514B402111513D3E5F5
:10058D000A6480F8E51364809850020513E514B4ED
:10059D000311050AD3E50A6480F8E51364809850C9
:1005AD0002150AE514B4040E150AD3E50A64809405
:1005BD00495003750AC9E513FD3395E0FCE4FF12BC
:1005CD00082D7F057E0012096BE50AFD3395E0FCD1
:1005DD007F0112082D7F057E0012096BAC13EC1202
:1005ED000248AB12AA11A910A80F1201B4600A405B
:1005FD00087BFF7A0979488019AC0AEC120248ABE6
:10060D0012AA11A910A80F1201B450107BFF7A097C
:10061D00794C7D0D7F0112085102048B7BFF7A0905
:0C062D0079507D0D7F0112085102048BF2
:03000B00020639B1
:10063900C0E0C0F0C083C082C0D075D000C000C087
:0D06490001C002C003C004C005C006C00708
:10065600758A66758CFC0509E50970020508C39460
:1006660014E508940040091207047508007509008E
:10067600D007D006D005D004D003D002D001D000D8
:0B068600D0D0D082D083D0F0D0E03282
:10096B00EF1FAC0670011E4C600B007D027CC7DCD8
:05097B00FEDDFC80EB35
:010980002254
:0D09E6001208927FCC1209247F44020924DC
:1007D8001208927FCC1209247FBE1209241208EB5A
:1007E8008F151208EBEFFEE515FFFDAC06EC1202C3
:0B07F80043E4FBFA79807841120117FE
:0108030022D2
:0609D700C2A58F80D2A72B
:0809DD007F027EEFDEFEDFFC6D
:0109E50022EF
:0A0A0B00C2A61209D7C2A70209DD36
:10087400CFCDCFCECCCE12033C7C007D0A12033CFC
:04088400ED2430FF30
:0A088800D2A61209D7C2A70209DDAB
:10098100AE07BE0104ED148006BE0209ED243F440A
:0609910080FF120A0B2298
:1009C3007F38120A0B7F0C120A0B7F06120A0B7F69
:0409D30001020A0B08
:0A0A1500AC03120981AF0402088847
:060851008B158A168917C1
:10085700120981E4FDAB15AA16A9178D82758300CD
:0C0867001202FDFF60061208880D80E9F7
:010873002262
:0C0775007F0AEA24FFFDE434FFFC7E0054
:080781008E1C8F1D8C1E8D1FC4
:100789007F017E00E4FBEBC3951FE51E6480F874CE
:0E0799008098500AAC1CAD1D12032A0B80E89C
:0107A700222F
:0408CE008A178B18E2
:1008D200120981AA19EAD39400400D120775AC17C8
:0808E200AD181208741A80ED34
:0108EA0022EB
:10069100120981C3EA64809480400B7F2B12088881
:1006A1008A1A8B1B800E7F2D120888C3E49BF51BD1
:1006B100E49AF51AAA19EAD39400400D120775AC11
:0906C1001AAD1B1208741A80ED39
:0106CA00220D
:0406CB008A228B23D1
:1006CF00120981AA24EAD3940040297F10120777D8
:1006DF00AC22AD23CFCDCFCECCCE12033CEF540FF7
:1006EF00FEC3940AEE5004243080022437FF120810
:0406FF00881A80D104
:0107030022D3
:04073D008A278B2854
:10074100120981AA29EAD394004028EA24FFFDE492
:1007510034FFFC7F027E00120781AC27AD28CFCD8C
:10076100CFCECCCE12033CEF54012430FF120888C7
:030771001A80D219
:010774002262
:10089200C2AFD2B7C2B77FE3DFFED2B77F22DFFE9D
:0D08A200A2B7E433FE7FE3DFFED2AFAF0666
:0108AF002226
:10099700C2AFC2B77E04DEFEEF24FF92B77E16DE3B
:0509A700FED2B7D2AF43
:0109AC002228
:10090800C2AFC2B77F02DFFED2B77F02DFFEA2B757
:0B091800E433FE7F16DFFED2AFAF0617
:0109230022B1
:02092400AD071D
:10092600E4FC7401A804088002C333D8FC5DFF12FE
:0609360009970CBC08EC5F
:01093C002298
:1008EB00E4FDFC120908EF600D7401A804088002F6
:0C08FB00C333D8FC42050CBC08E9AF0573
:0109070022CD
:05000300E4AF2CF52C18
:0100080022D5
:1009AD00E4FF20B1010F20B0027F0220B2027F03CD
:0509BD0020B3027F04DD
:0109C2002212
:10070400852A2B1209AD8F2AE52BB40107E52A703F
:1007140003752C01E52BB40207E52A7003752C023E
:10072400E52BB40307E52A7003752C03E52BB40409
:0807340007E52A7003752C048F
:01073C00229A
:100954005389F0438901758A66758CFCC28DD28CEB
:07096400D2AFD2A9C2B922F3
:10082D008F158C168D17120A297FA0120804120934
:10083D00F3AF151208041209F3AF171208041209C9
:04084D00F3020A3276
:0207A8008F15AB
:1007AA00120A297FA01208041209F3AF15120804CD
:1007BA001209F3120A297FA11208041209F3120876
:0D07CA00B08F167F01120A1F120A32AF16FF
:0107D70022FF
:090A2900D2A0D2A1C2A0C2A122F8
:090A3200C2A1C2A0D2A1D2A022EF
:02080400AD073E
:10080600E4FB74807E00A803088006CEA2E713CE20
:1008160013D8F8FFEDF582EF558224FF92A0D2A1FE
:06082600C2A10BBB08DCBF
:01082C0022A9
:1008B000E4FFD2A0FE30A00D7480A806088002C319
:0D08C00013D8FC4207D2A1C2A10EBE08E869
:0108CD002208
:0A0A1F00EF24FF92A0D2A1C2A12291
:0B09F300D2A0A2A0E433FFD2A1C2A159
:0109FE0022D6
:10000E00EC4D6011E8497017ED33EC3304600DE4EC
:10001E00FCFFFEFD22E933E8330470F80202E81219
:10002E0002B358046009E4CC24815006285009021A
:10003E0002F22840030202EFC0E0EB4A7044B9809E
:10004E0006D0E0FB0202DEEF4E701CBD8008EBFF17
:10005E00EAFEE9FD80EBE98DF0A4FEE5F00200F783
:10006E00E9CDF9EAFEEBFFEF89F0A4FCE5F0CE89CD
:10007E00F0A42EFFE435F0CD89F0A42DFEE435F08A
:10008E008067EF4E7005BD80D780C3EF8BF0A4ACB8
:10009E00F0EE8BF0A42CFCE435F0F8EF8AF0A42CF3
:1000AE00E5F038FCE433CB8DF0A42CFCE5F03BF806
:1000BE00EE8AF0A42CFCE5F038F8E433CF89F0A4F6
:1000CE002CFCE5F038CF3400CE89F0A42FFFE5F0FC
:1000DE003EFEE433C98DF0A42EFEE5F039CD8AF054
:1000EE00A42FFFE5F03EFEE43DFD33D0E0FB5007CC
:1000FE000BBB000F0202F2EC2CFCEF33FFEE33FED3
:06010E00ED33FD0202CA00
:100114000202F2EC5D046005E8590470030202E88F
:100124001202B3580460F6EC4860F2EC7004FDFE71
:10013400FF22C860DB2481C85009C39860025006BE
:100144000202EF9850CAF582E9294B4A7005AB8246
:100154000202DE75F0007C1A7880C3EF9BEE9AED04
:1001640099400DC3EF9BFFEE9AFEED99FDE842F036
:10017400DC23ACF0D0E0FFD0E0FED0E0FDAB822089
:10018400E7101BEB60BAEC2CFCEF33FFEE33FEED13
:1001940033FD0202CAE803F830E705C0F075F00049
:1001A400EF2FFFEE33FEED33FD40B830E7C280AAF7
:1001B40074F8CC6480CCC86480C8F58204604FC3F2
:1001C400EB9FF5F0EA9E42F0E99D42F0E89C45F091
:1001D400603C501DE5825FFFE582D313CB5BCBF41B
:1001E4002B5582FB50280ABA002409B90020088044
:1001F4001DE5825BFBE582D313CF5FCFF4C3132FDE
:100204005582FF50090EBE00050DBD00010CC3EB65
:100214009FF5F0EA9E42F0E99D42F0E89C45F060CB
:0902240007CC4820E701B3EC22ED
:10022D00ED33EC33600A047003BD8004ECB2E7FCDF
:01023D00229E
:10023E0075F020800E75F010800575F0087D007E3B
:10024E00007F003392D530D50312045FEC3340109B
:10025E00EF33FFEE33FEED33FDEC33FCD5F0ED2244
:0E026E00E5F0247EA2D513CC92E7CDCEFF2280
:10027C00EDD2E7CD33EC3392D524814006E4FFFE7A
:10028C00FDFC22FCE4CFCECDCC24E0501174FF80D9
:10029C00EDC3CC13CCCD13CDCE13CECF13CF047076
:0702AC00F030D5DE02045F13
:1002B300E9D2E7C933E833F892D5EDD2E7CD33EC91
:0702C30033FC5002B2D5220A
:1002CA00EC30E7100FBF000C0EBE00080DBD000495
:1002DA000BEB6014A2D5EB13FCED92E7FD2274FF41
:1002EA00FCFDFEFF22E480F8A2D574FF13FC7D809A
:0302FA00E480EFAE
:030000000209FFF3
:0C09FF00787FE4F6D8FD75812C02046DB1
:1002FD00BB010CE58229F582E5833AF583E02250B6
:10030D0006E92582F8E622BBFE06E92582F8E222FF
:0D031D00E58229F582E5833AF583E4932219
:10032A00EF8DF0A4A8F0CF8CF0A428CE8DF0A42EE7
:02033A00FE22A1
:10033C00BC000BBE0029EF8DF084FFADF022E4CCA5
:10034C00F875F008EF2FFFEE33FEEC33FCEE9DEC6E
:10035C00984005FCEE9DFE0FD5F0E9E4CEFD22EDB4
:10036C00F8F5F0EE8420D21CFEADF075F008EF2FFE
:10037C00FFED33FD4007985006D5F0F222C398FDEF
:05038C000FD5F0EA228C
:1003910075F008758200EF2FFFEE33FECD33CDCC23
:1003A10033CCC58233C5829BED9AEC99E5829840A6
:1003B1000CF582EE9BFEED9AFDEC99FC0FD5F0D683
:1003C100E4CEFBE4CDFAE4CCF9A88222B800C1B9AD
:1003D1000059BA002DEC8BF084CFCECDFCE5F0CBEB
:1003E100F97818EF2FFFEE33FEED33FDEC33FCEB24
:1003F10033FB10D703994004EB99FB0FD8E5E4F9DF
:10040100FA227818EF2FFFEE33FEED33FDEC33FCCB
:10041100C933C910D7059BE99A4007EC9BFCE99ABF
:10042100F90FD8E0E4C9FAE4CCFB2275F010EF2F04
:10043100FFEE33FEED33FDCC33CCC833C810D70704
:100441009BEC9AE899400AED9BFDEC9AFCE899F83F
:0E0451000FD5F0DAE4CDFBE4CCFAE4C8F922D2
:0E045F00C3E49FFFE49EFEE49DFDE49CFC22AE
:00000001FF
