:10015300E4FDFC7F0112008F1200F28F12E51260A2
:10016300F7FD7C007F0112008F7F647E0012017512
:0201730080E624
:10019700EF1FAC0670011E4C600B007D027CC7DCB4
:0501A700FEDDFC80EB11
:0101AC002230
:1000F200E4F51320B1137F14FE12019730B1FD7F96
:10010200147E0012019775130120B0147F147E0033
:1001120012019730B0FD7F147E0012019775130211
:1001220020B2147F147E0012019730B2FD7F147E3C
:100132000012019775130320B3147F147E0012017D
:100142009730B3FD7F147E00120197751304AF132D
:01015200228A
:0C01AD000A083F065B4F666D7D077F6F00
:10008F00EF14B4080050549000A475F003A4C58376
:10009F0025F0C583730200BC0200C00200C4020039
:1000AF00C80200CC0200D40200DC0200E4D2A4801B
:1000BF000ED2A48012D2A48016D2A4801AC2A4D2C7
:1000CF00A3D2A28016C2A4D2A3C2A2800EC2A4C27F
:1000DF00A3D2A28006C2A4C2A3C2A274082DF8E6BE
:0300EF00F5802277
:0501BA00007FE3DFFE01
:0101BF00221D
:04017500AD07AC0620
:10017900E4FBFAED25E0FFEC33FEC3EB9FEA9E506A
:0D0189000CB2A51201BA0BBB00010A80E602
:010196002246
:03000000020003F8
:0C000300787FE4F6D8FD75811302004AF6
:10000F00020153E493A3F8E493A34003F68001F2B3
:10001F0008DFF48029E493A3F85407240CC8C333F2
:10002F00C4540F4420C8834004F456800146F6DFC1
:10003F00E4800B01020408102040809001ADE47EA3
:10004F00019360BCA3FF543F30E509541FFEE493B6
:10005F00A360010ECF54C025E060A840B8E493A37D
:10006F00FAE493A3F8E493A3C8C582C8CAC583CAA8
:10007F00F0A3C8C582C8CAC583CADFE9DEE780BE60
:0101B9000045
:00000001FF
