:10000E0000000004000000040000000400160002BE
:10001E000018000200190006001800020019000462
:10002E00001D00040018000C001100020011000257
:10003E000016000600140002001600040019000449
:10004E000014000C00110004001200060011000242
:10005E000012000400190004001100080000000244
:10006E000019000200190002001900020018000613
:10007E00001300020013000400180004001800080A
:10008E00000000040016000200180002001900060D
:10009E000018000200190004001D00040018000CD6
:1000AE0000110002001100020016000600140002EA
:1000BE0000160004001900040014000C000F0002CA
:1000CE0000110002001200040019000200180004C2
:1000DE0000190006001B0002001B0002001D00029A
:1000EE000019000A00190002001800020016000292
:1000FE000016000200180004001500040016000C83
:10010E0000190002001B0002001D0006001B000269
:10011E00001D000400200004001B000C001400024F
:10012E000014000200190006001800020019000455
:10013E00001D0004001D0010001600020018000231
:10014E000019000400180004001B0002001B00022E
:10015E00001900060014000A001E0004001D000411
:10016E00001D000400190004001D000C001D0004F9
:10017E00002200080020000400200004001D0002E0
:10018E00001B000200190008000000020019000206
:10019E00001B000400190002001B0002001B0004DB
:1001AE0000200004001D000C001D000400220008A9
:1001BE0000200008001D0002001B000200190008AC
:1001CE000000000200190002001B000400190002CA
:1001DE00001B0006001800040016000C00000004AE
:0201EE0000FF10
:1002D200204A0A0000F88CF8F3F95BF9B8FA15FA2B
:1002E20067FAB9FB04FB4BFB90FBCFFC0CFC44FC14
:1002F20079FCACFCDCFD09FD34FD5CFD82FDA6FD54
:10030200C8FDE8FE06FE22FE3DFE56FE6EFE85FE9E
:0D0312009AFEAEFEC1FED3FEE4FEF4FF0332
:10027C0012035475F002E508A4240EF582E5F0345F
:10028C0000F583E493FE740193FFF44E60348F0900
:10029C00050875F002E508A4240EF582E5F034009B
:1002AC00F583E493FE740193FF7C007D7D12038142
:1002BC0012036B0508C28C7F057E0012036BD28C77
:0602CC0080B1C28C80FE2F
:03000B00020320CD
:10032000C0E0C0D075D000C000C006E50925E024BB
:100330000AF8E6FE08E64E6012E50925E0240AF810
:10034000E6FE08E6F58AEEF58CB2A5D006D000D020
:04035000D0D0E032F7
:10036B00EF1FAC0670011E4C600B007D027CC7DCDE
:05037B00FEDDFC80EB3B
:01038000225A
:100354005389F0438901758A66758CFCC28DD28CF1
:07036400D2AFD2A9C2B922F9
:030000000201F00A
:0C01F000787FE4F6D8FD758153020237D9
:10038100EF8DF0A4A8F0CF8CF0A428CE8DF0A42E90
:02039100FE224A
:1001FC0002027CE493A3F8E493A34003F68001F29B
:10020C0008DFF48029E493A3F85407240CC8C33303
:10021C00C4540F4420C8834004F456800146F6DFD2
:10022C00E4800B01020408102040809002D2E47E8E
:10023C00019360BCA3FF543F30E509541FFEE493C7
:10024C00A360010ECF54C025E060A840B8E493A38E
:10025C00FAE493A3F8E493A3C8C582C8CAC583CAB9
:10026C00F0A3C8C582C8CAC583CADFE9DEE780BE71
:01031F0000DD
:00000001FF
