:0602B70048656C6C6F004D
:10009700E4F508F5091202747B417D017F01120224
:1000A700AD7BFF7A0279B77D037F011201EA750EF6
:1000B700037BC87A007D097F0112022B750E027B34
:1000C7009D7AFF7D0D7F0112010C750E027BFF7A71
:1000D700007D017F02120146750E087BAA7A007D1A
:1000E700047F0212017F0509E509700205087FE810
:1000F7007E0312025E750E03AB09AA087D0D7F020F
:0501070012022B80E153
:06028800C2A58F80D2A781
:08028E007F027EEFDEFEDFFCC3
:010296002245
:0A02A300C2A6120288C2A702028E52
:10020D00CFCDCFCECCCE1200427C007D0A12004263
:04021D00ED2430FF9D
:0A022100D2A6120288C2A702028EC4
:10024800AE07BE0104ED148006BE0209ED243F444A
:0602580080FF1202A32248
:100274007F381202A37F0C1202A37F061202A37F0F
:04028400010202A3CE
:0A02AD00AC03120248AF0402022164
:0601EA008B0A8A0B890C50
:1001F000120248E4FDAB0AAA0BA90C8D827583009C
:0C020000120003FF60061202210D80E9CD
:01020C0022CF
:0C01B7007F0AEA24FFFDE434FFFC7E0018
:0801C3008E118F128C138D14B4
:1001CB007F017E00E4FBEBC39514E5136480F874A8
:0E01DB008098500AAC11AD121200300B80E873
:0101E90022F3
:04022B008A0C8B0DA1
:10022F00120248AA0EEAD39400400D1201B7AC0C8B
:08023F00AD0D12020D1A80ED55
:010247002294
:10010C00120248C3EA64809480400B7F2B120221B8
:10011C008A0F8B10800E7F2D120221C3E49BF510E9
:10012C00E49AF50FAA0EEAD39400400D1201B7AC75
:09013C000FAD1012020D1A80ED46
:010145002297
:040146008A0C8B0D87
:10014A00120248AA0EEAD3940040297F101201B97C
:10015A00AC0CAD0DCFCDCFCECCCE120042EF540FAA
:10016A00FEC3940AEE5004243080022437FF1202A0
:04017A00211A80D1F5
:01017E00225E
:04017F008A0C8B0D4E
:10018300120248AA0EEAD394004028EA24FFFDE4B1
:1001930034FFFC7F027E001201C3AC0CAD0DCFCD4A
:1001A300CFCECCCE120042EF54012430FF120221F5
:0301B3001A80D2DD
:0101B6002226
:10025E00EF1FAC0670011E4C600B007D027CC7DCEC
:05026E00FEDDFC80EB49
:010273002268
:0300000002029762
:0C029700787FE4F6D8FD75811402009712
:10000300BB010CE58229F582E5833AF583E02250B2
:1000130006E92582F8E622BBFE06E92582F8E222FC
:0D002300E58229F582E5833AF583E4932216
:10003000EF8DF0A4A8F0CF8CF0A428CE8DF0A42EE4
:02004000FE229E
:10004200BC000BBE0029EF8DF084FFADF022E4CCA2
:10005200F875F008EF2FFFEE33FEEC33FCEE9DEC6B
:10006200984005FCEE9DFE0FD5F0E9E4CEFD22EDB1
:10007200F8F5F0EE8420D21CFEADF075F008EF2FFB
:10008200FFED33FD4007985006D5F0F222C398FDEC
:050092000FD5F0EA2289
:00000001FF
