:1002D100434C4F434B3A200020203A20203A202023
:0102E100001C
:1000A20012027A1202BD7BFF7A0279D17D017F01B1
:1000B20012021C7BFF7A0279D97D017F0212021C97
:1000C200E51BFB7A00750C027D017F0212025DE5E1
:1000D2001CFB7A00750C027D047F0212025DE51A98
:0F00E200FB7A00750C027D077F0212025D80D150
:03000B000200F1FF
:0400F100C0E0C0D0DB
:1000F500758A66758CFC0519E51970020518C39497
:10010500E8E5189403402D051AE51A943C401F753F
:100115001A00051CE51C943C4014751C00051BE5E4
:100125001B94184009751A00751C00751B0075187D
:040135000075190038
:05013900D0D0D0E0323F
:10029100EF1FAC0670011E4C600B007D027CC7DCB9
:0502A100FEDDFC80EB16
:0102A6002235
:0602E200C2A58F80D2A727
:0802E8007F027EEFDEFEDFFC69
:0102F00022EB
:0A02FD00C2A61202E2C2A70202E844
:10023F00CFCDCFCECCCE12004D7C007D0A12004D1B
:04024F00ED2430FF6B
:0A025300D2A61202E2C2A70202E8DE
:1002A700AE07BE0104ED148006BE0209ED243F44EB
:0602B70080FF1202FD228F
:1002BD007F381202FD7F0C1202FD7F061202FD7FB8
:0402CD00010202FD2B
:0A030700AC031202A7AF0402025378
:06021C008B088A09890A23
:100222001202A7E4FDAB08AA09A90A8D8275830010
:0C02320012000EFF60061202530D80E95E
:01023E00229D
:0C01E9007F0AEA24FFFDE434FFFC7E00E6
:0801F5008E0D8F0E8C0F8D1092
:1001FD007F017E00E4FBEBC39510E50F6480F8747E
:0E020D008098500AAC0DAD0E12003B0B80E83D
:01021B0022C0
:04025D008A0A8B0B73
:100261001202A7AA0CEAD39400400D1201E9AC0ACC
:08027100AD0B12023F1A80EDF3
:010279002262
:10013E001202A7C3EA64809480400B7F2B120253F5
:10014E008A168B17800E7F2D120253C3E49BF51770
:10015E00E49AF516AA15EAD39400400D1201E9AC03
:09016E0016AD1712023F1A80EDD4
:010177002265
:040178008A1F8B202F
:10017C001202A7AA21EAD3940040297F101201EBA6
:10018C00AC1FAD20CFCDCFCECCCE12004DEF540F47
:10019C00FEC3940AEE5004243080022437FF12026E
:0401AC00531A80D191
:0101B000222C
:0401B1008A248B25EC
:1001B5001202A7AA26EAD394004028EA24FFFDE408
:1001C50034FFFC7F027E001201F5AC24AD25CFCDB6
:1001D500CFCECCCE12004DEF54012430FF12025386
:0301E5001A80D2AB
:0101E80022F4
:10027A005389F0438901758A66758CFCC28DD28CCC
:07028A00D2AFD2A9C2B922D4
:030000000202F108
:0C02F100787FE4F6D8FD7581260200A29B
:10000E00BB010CE58229F582E5833AF583E02250A7
:10001E0006E92582F8E622BBFE06E92582F8E222F1
:0D002E00E58229F582E5833AF583E493220B
:10003B00EF8DF0A4A8F0CF8CF0A428CE8DF0A42ED9
:02004B00FE2293
:10004D00BC000BBE0029EF8DF084FFADF022E4CC97
:10005D00F875F008EF2FFFEE33FEEC33FCEE9DEC60
:10006D00984005FCEE9DFE0FD5F0E9E4CEFD22EDA6
:10007D00F8F5F0EE8420D21CFEADF075F008EF2FF0
:10008D00FFED33FD4007985006D5F0F222C398FDE1
:05009D000FD5F0EA227E
:00000001FF
