:0B0460004D61747269784B65793A00B9
:10038800E4F50812043D7BFF7A0479607D017F0162
:100398001203B31200038F08E50860F7FB7A0075B3
:0B03A8000D027D017F021203F480E8CB
:03047F0001230056
:100003007590FFC2972093147F147E001204113061
:1000130093FD7F147E001204117523012092147F37
:10002300147E001204113092FD7F147E001204111D
:100033007523022091147F147E001204113091FD68
:100043007F147E001204117523032090147F147E05
:10005300001204113090FD7F147E001204117523E9
:10006300047590FFC2962093147F147E001204112E
:100073003093FD7F147E0012041175230520921422
:100083007F147E001204113092FD7F147E0012044F
:10009300117523062091147F147E001204113091F0
:1000A300FD7F147E001204117523072090147F1422
:1000B3007E001204113090FD7F147E00120411752E
:1000C30023087590FFC2952093147F147E001204B9
:1000D300113093FD7F147E001204117523092092C1
:1000E300147F147E001204113092FD7F147E0012DF
:1000F300041175230A2091147F147E001204113019
:1001030091FD7F147E0012041175230B2090147F40
:10011300147E001204113090FD7F147E001204112E
:1001230075230C7590FFC2942093147F147E0012E4
:1001330004113093FD7F147E0012041175230D20EA
:1001430092147F147E001204113092FD7F147E00FE
:1001530012041175230E2091147F147E00120411D2
:100163003091FD7F147E0012041175230F2090142B
:100173007F147E001204113090FD7F147E00120460
:0701830011752310AF2322C8
:10041100EF1FAC0670011E4C600B007D027CC7DC37
:05042100FEDDFC80EB94
:0104260022B3
:06045100C2A58F80D2A7B6
:080457007F027EEFDEFEDFFCF8
:01045F00227A
:0A046B00C2A6120451C2A7020457F2
:1003D600CFCDCFCECCCE1201C97C007D0A1201C989
:0403E600ED2430FFD3
:0A03EA00D2A6120451C2A702045764
:10042700AE07BE0104ED148006BE0209ED243F4469
:0604370080FF12046B229D
:10043D007F3812046B7F0C12046B7F0612046B7FE6
:04044D000102046B39
:0A047500AC03120427AF040203EAEF
:0603B3008B098A0A890B88
:1003B900120427E4FDAB09AA0AA90B8D82758300F3
:0C03C90012018AFF60061203EA0D80E9B1
:0103D5002205
:0C0355007F0AEA24FFFDE434FFFC7E0078
:080361008E0E8F0F8C108D1120
:100369007F017E00E4FBEBC39511E5106480F8740E
:0E0379008098500AAC0EAD0F1201B70B80E851
:010387002253
:0403F4008A0B8B0CD9
:1003F800120427AA0DEAD39400400D120355AC0B42
:08040800AD0C1203D61A80EDC1
:0104100022C9
:1002AA00120427C3EA64809480400B7F2B1203EA6E
:1002BA008A178B18800E7F2D1203EAC3E49BF51868
:1002CA00E49AF517AA16EAD39400400D120355AC26
:0902DA0017AD181203D61A80EDCD
:0102E30022F8
:0402E4008A1B8B1CCA
:1002E800120427AA1DEAD3940040297F101203574D
:1002F800AC1BAD1CCFCDCFCECCCE1201C9EF540F65
:10030800FEC3940AEE5004243080022437FF1203FF
:04031800EA1A80D18C
:01031C0022BE
:04031D008A208B2186
:10032100120427AA22EAD394004028EA24FFFDE41C
:1003310034FFFC7F027E00120361AC20AD21CFCDE2
:10034100CFCECCCE1201C9EF54012430FF1203EA03
:030351001A80D23D
:010354002286
:0300000002021EDB
:0C021E00787FE4F6D8FD758123020265AC
:10018A00BB010CE58229F582E5833AF583E022502A
:10019A0006E92582F8E622BBFE06E92582F8E22274
:0D01AA00E58229F582E5833AF583E493228E
:1001B700EF8DF0A4A8F0CF8CF0A428CE8DF0A42E5C
:0201C700FE2216
:1001C900BC000BBE0029EF8DF084FFADF022E4CC1A
:1001D900F875F008EF2FFFEE33FEEC33FCEE9DECE3
:1001E900984005FCEE9DFE0FD5F0E9E4CEFD22ED29
:1001F900F8F5F0EE8420D21CFEADF075F008EF2F73
:10020900FFED33FD4007985006D5F0F222C398FD63
:050219000FD5F0EA2200
:10022A00020388E493A3F8E493A34003F68001F25F
:10023A0008DFF48029E493A3F85407240CC8C333D5
:10024A00C4540F4420C8834004F456800146F6DFA4
:10025A00E4800B010204081020408090047FE47EB1
:10026A00019360BCA3FF543F30E509541FFEE49399
:10027A00A360010ECF54C025E060A840B8E493A360
:10028A00FAE493A3F8E493A3C8C582C8CAC583CA8B
:10029A00F0A3C8C582C8CAC583CADFE9DEE780BE43
:010482000079
:00000001FF
