:1001160020200900001B3CF8FC3B00001B3CFCFFB8
:100126003A000000000B1C7C7E1B00001B3CFCFF01
:030136003A00008C
:1000DE00E4F529E529252A2409F8E6FD7C00AF2957
:1000EE0012008F0529E529C3940840E70508E508A5
:1000FE00D3940A40DBE4F5087408252AF52AD39434
:08010E001040CDE4F52A80C881
:10013A00EF1FAC0670011E4C600B007D027CC7DC11
:05014A00FEDDFC80EB6E
:01014F00228D
:06008F00AB05AA04A9075D
:10009500E4FDC2B5C2B674807E00A805088006CE10
:1000A500A2E713CE13D8F8FFEE5AFEEF5B4E24FFFE
:1000B50092B4D2B6C2B60DBD08DCD2B5C2B5AF0199
:1000C5007480A807088002C313D8FCF4F5807F016B
:0800D5007E0012013A7580FF64
:0100DD002200
:03000000020003F8
:0C000300787FE4F6D8FD75812A02004ADF
:10000F000200DEE493A3F8E493A34003F68001F229
:10001F0008DFF48029E493A3F85407240CC8C333F2
:10002F00C4540F4420C8834004F456800146F6DFC1
:10003F00E4800B0102040810204080900116E47E3A
:10004F00019360BCA3FF543F30E509541FFEE493B6
:10005F00A360010ECF54C025E060A840B8E493A37D
:10006F00FAE493A3F8E493A3C8C582C8CAC583CAA8
:10007F00F0A3C8C582C8CAC583CADFE9DEE780BE60
:0101390000C5
:00000001FF
