:0A010F0008083C42A98585A9423C7E
:1000DD00E4F51074082510F8E6FD7C00AF10120051
:0C00ED008F0510E510C3940840E980E482
:1000F900EF1FAC0670011E4C600B007D027CC7DC53
:05010900FEDDFC80EBAF
:01010E0022CE
:06008F00AB05AA04A9075D
:10009500E4FD7580FFC2B5C2B674807E00A8050870
:1000A5008006CEA2E713CE13D8F8FFEE5AFEEF5B1B
:1000B5004E24FF92B4D2B6C2B60DBD08DCD2B5C28D
:1000C500B5AF017480A807088002C313D8FCF4F506
:0800D500807F017E000200F9AA
:03000000020003F8
:0C000300787FE4F6D8FD75811002004AF9
:10000F000200DDE493A3F8E493A34003F68001F22A
:10001F0008DFF48029E493A3F85407240CC8C333F2
:10002F00C4540F4420C8834004F456800146F6DFC1
:10003F00E4800B010204081020408090010FE47E41
:10004F00019360BCA3FF543F30E509541FFEE493B6
:10005F00A360010ECF54C025E060A840B8E493A37D
:10006F00FAE493A3F8E493A3C8C582C8CAC583CAA8
:10007F00F0A3C8C582C8CAC583CADFE9DEE780BE60
:0101190000E5
:00000001FF
